{"abi":[{"type":"constructor","inputs":[],"stateMutability":"nonpayable"},{"type":"receive","stateMutability":"payable"},{"type":"function","name":"executeArbitrage","inputs":[{"name":"routers","type":"address[3]","internalType":"address[3]"},{"name":"tokens","type":"address[3]","internalType":"address[3]"},{"name":"amountIn","type":"uint256","internalType":"uint256"},{"name":"minProfitBps","type":"uint256","internalType":"uint256"}],"outputs":[{"name":"finalAmount","type":"uint256","internalType":"uint256"}],"stateMutability":"nonpayable"},{"type":"function","name":"owner","inputs":[],"outputs":[{"name":"","type":"address","internalType":"address"}],"stateMutability":"view"},{"type":"function","name":"withdrawETH","inputs":[],"outputs":[],"stateMutability":"nonpayable"},{"type":"function","name":"withdrawProfit","inputs":[{"name":"token","type":"address","internalType":"address"}],"outputs":[],"stateMutability":"nonpayable"},{"type":"event","name":"ArbitrageExecuted","inputs":[{"name":"token","type":"address","indexed":true,"internalType":"address"},{"name":"amountIn","type":"uint256","indexed":false,"internalType":"uint256"},{"name":"amountOut","type":"uint256","indexed":false,"internalType":"uint256"},{"name":"profit","type":"uint256","indexed":false,"internalType":"uint256"}],"anonymous":false},{"type":"event","name":"ProfitWithdrawn","inputs":[{"name":"token","type":"address","indexed":true,"internalType":"address"},{"name":"amount","type":"uint256","indexed":false,"internalType":"uint256"}],"anonymous":false}],"bytecode":{"object":"0x6080604052348015600e575f5ffd5b50335f5f6101000a81548173ffffffffffffffffffffffffffffffffffffffff021916908373ffffffffffffffffffffffffffffffffffffffff1602179055506114678061005b5f395ff3fe608060405260043610610042575f3560e01c806324e262411461004d5780638da5cb5b14610075578063bff18f751461009f578063e086e5ec146100db57610049565b3661004957005b5f5ffd5b348015610058575f5ffd5b50610073600480360381019061006e9190610b3c565b6100f1565b005b348015610080575f5ffd5b5061008961032a565b6040516100969190610b76565b60405180910390f35b3480156100aa575f5ffd5b506100c560048036038101906100c09190610be7565b61034e565b6040516100d29190610c5b565b60405180910390f35b3480156100e6575f5ffd5b506100ef610773565b005b5f5f9054906101000a900473ffffffffffffffffffffffffffffffffffffffff1673ffffffffffffffffffffffffffffffffffffffff163373ffffffffffffffffffffffffffffffffffffffff161461017f576040517f08c379a000000000000000000000000000000000000000000000000000000000815260040161017690610cce565b60405180910390fd5b5f8173ffffffffffffffffffffffffffffffffffffffff166370a08231306040518263ffffffff1660e01b81526004016101b99190610b76565b602060405180830381865afa1580156101d4573d5f5f3e3d5ffd5b505050506040513d601f19601f820116820180604052508101906101f89190610d00565b90505f811161023c576040517f08c379a000000000000000000000000000000000000000000000000000000000815260040161023390610d75565b60405180910390fd5b8173ffffffffffffffffffffffffffffffffffffffff1663a9059cbb5f5f9054906101000a900473ffffffffffffffffffffffffffffffffffffffff16836040518363ffffffff1660e01b8152600401610297929190610d93565b6020604051808303815f875af11580156102b3573d5f5f3e3d5ffd5b505050506040513d601f19601f820116820180604052508101906102d79190610def565b508173ffffffffffffffffffffffffffffffffffffffff167f016e128b6bdadd9e9068abd0b18db2fc8b27ed3dbced50e4aa6cc0a6934251ab8260405161031e9190610c5b565b60405180910390a25050565b5f5f9054906101000a900473ffffffffffffffffffffffffffffffffffffffff1681565b5f5f5f9054906101000a900473ffffffffffffffffffffffffffffffffffffffff1673ffffffffffffffffffffffffffffffffffffffff163373ffffffffffffffffffffffffffffffffffffffff16146103dd576040517f08c379a00000000000000000000000000000000000000000000000000000000081526004016103d490610cce565b60405180910390fd5b5f845f600381106103f1576103f0610e1a565b5b6020020160208101906104049190610b3c565b73ffffffffffffffffffffffffffffffffffffffff166370a08231306040518263ffffffff1660e01b815260040161043c9190610b76565b602060405180830381865afa158015610457573d5f5f3e3d5ffd5b505050506040513d601f19601f8201168201806040525081019061047b9190610d00565b9050838110156104c0576040517f08c379a00000000000000000000000000000000000000000000000000000000081526004016104b790610e91565b60405180910390fd5b5f61053d875f600381106104d7576104d6610e1a565b5b6020020160208101906104ea9190610b3c565b875f600381106104fd576104fc610e1a565b5b6020020160208101906105109190610b3c565b8860016003811061052457610523610e1a565b5b6020020160208101906105379190610b3c565b886108ae565b90505f6105be8860016003811061055757610556610e1a565b5b60200201602081019061056a9190610b3c565b8860016003811061057e5761057d610e1a565b5b6020020160208101906105919190610b3c565b896002600381106105a5576105a4610e1a565b5b6020020160208101906105b89190610b3c565b856108ae565b905061063d886002600381106105d7576105d6610e1a565b5b6020020160208101906105ea9190610b3c565b886002600381106105fe576105fd610e1a565b5b6020020160208101906106119190610b3c565b895f6003811061062457610623610e1a565b5b6020020160208101906106379190610b3c565b846108ae565b9350858411610681576040517f08c379a000000000000000000000000000000000000000000000000000000000815260040161067890610ef9565b60405180910390fd5b5f868561068e9190610f44565b90505f61271087896106a09190610f77565b6106aa9190610fe5565b9050808210156106ef576040517f08c379a00000000000000000000000000000000000000000000000000000000081526004016106e69061105f565b60405180910390fd5b885f6003811061070257610701610e1a565b5b6020020160208101906107159190610b3c565b73ffffffffffffffffffffffffffffffffffffffff167fac5e73d65c7df1a72a57e0d680767c7e764095957ee44ec036b761799b56afd289888560405161075e9392919061107d565b60405180910390a25050505050949350505050565b5f5f9054906101000a900473ffffffffffffffffffffffffffffffffffffffff1673ffffffffffffffffffffffffffffffffffffffff163373ffffffffffffffffffffffffffffffffffffffff1614610801576040517f08c379a00000000000000000000000000000000000000000000000000000000081526004016107f890610cce565b60405180910390fd5b5f4790505f8111610847576040517f08c379a000000000000000000000000000000000000000000000000000000000815260040161083e906110fc565b60405180910390fd5b5f5f9054906101000a900473ffffffffffffffffffffffffffffffffffffffff1673ffffffffffffffffffffffffffffffffffffffff166108fc8290811502906040515f60405180830381858888f193505050501580156108aa573d5f5f3e3d5ffd5b5050565b5f8373ffffffffffffffffffffffffffffffffffffffff1663095ea7b386846040518363ffffffff1660e01b81526004016108ea929190610d93565b6020604051808303815f875af1158015610906573d5f5f3e3d5ffd5b505050506040513d601f19601f8201168201806040525081019061092a9190610def565b505f600267ffffffffffffffff8111156109475761094661111a565b5b6040519080825280602002602001820160405280156109755781602001602082028036833780820191505090505b50905084815f8151811061098c5761098b610e1a565b5b602002602001019073ffffffffffffffffffffffffffffffffffffffff16908173ffffffffffffffffffffffffffffffffffffffff168152505083816001815181106109db576109da610e1a565b5b602002602001019073ffffffffffffffffffffffffffffffffffffffff16908173ffffffffffffffffffffffffffffffffffffffff16815250505f8673ffffffffffffffffffffffffffffffffffffffff166338ed1739855f853061012c42610a449190611147565b6040518663ffffffff1660e01b8152600401610a64959493929190611273565b5f604051808303815f875af1158015610a7f573d5f5f3e3d5ffd5b505050506040513d5f823e3d601f19601f82011682018060405250810190610aa791906113ea565b905080600181518110610abd57610abc610e1a565b5b602002602001015192505050949350505050565b5f604051905090565b5f5ffd5b5f5ffd5b5f73ffffffffffffffffffffffffffffffffffffffff82169050919050565b5f610b0b82610ae2565b9050919050565b610b1b81610b01565b8114610b25575f5ffd5b50565b5f81359050610b3681610b12565b92915050565b5f60208284031215610b5157610b50610ada565b5b5f610b5e84828501610b28565b91505092915050565b610b7081610b01565b82525050565b5f602082019050610b895f830184610b67565b92915050565b5f5ffd5b5f81905082602060030282011115610bae57610bad610b8f565b5b92915050565b5f819050919050565b610bc681610bb4565b8114610bd0575f5ffd5b50565b5f81359050610be181610bbd565b92915050565b5f5f5f5f6101008587031215610c0057610bff610ada565b5b5f610c0d87828801610b93565b9450506060610c1e87828801610b93565b93505060c0610c2f87828801610bd3565b92505060e0610c4087828801610bd3565b91505092959194509250565b610c5581610bb4565b82525050565b5f602082019050610c6e5f830184610c4c565b92915050565b5f82825260208201905092915050565b7f4e6f74206f776e657200000000000000000000000000000000000000000000005f82015250565b5f610cb8600983610c74565b9150610cc382610c84565b602082019050919050565b5f6020820190508181035f830152610ce581610cac565b9050919050565b5f81519050610cfa81610bbd565b92915050565b5f60208284031215610d1557610d14610ada565b5b5f610d2284828501610cec565b91505092915050565b7f4e6f2062616c616e6365000000000000000000000000000000000000000000005f82015250565b5f610d5f600a83610c74565b9150610d6a82610d2b565b602082019050919050565b5f6020820190508181035f830152610d8c81610d53565b9050919050565b5f604082019050610da65f830185610b67565b610db36020830184610c4c565b9392505050565b5f8115159050919050565b610dce81610dba565b8114610dd8575f5ffd5b50565b5f81519050610de981610dc5565b92915050565b5f60208284031215610e0457610e03610ada565b5b5f610e1184828501610ddb565b91505092915050565b7f4e487b71000000000000000000000000000000000000000000000000000000005f52603260045260245ffd5b7f496e73756666696369656e742062616c616e63650000000000000000000000005f82015250565b5f610e7b601483610c74565b9150610e8682610e47565b602082019050919050565b5f6020820190508181035f830152610ea881610e6f565b9050919050565b7f4e6f2070726f66697400000000000000000000000000000000000000000000005f82015250565b5f610ee3600983610c74565b9150610eee82610eaf565b602082019050919050565b5f6020820190508181035f830152610f1081610ed7565b9050919050565b7f4e487b71000000000000000000000000000000000000000000000000000000005f52601160045260245ffd5b5f610f4e82610bb4565b9150610f5983610bb4565b9250828203905081811115610f7157610f70610f17565b5b92915050565b5f610f8182610bb4565b9150610f8c83610bb4565b9250828202610f9a81610bb4565b91508282048414831517610fb157610fb0610f17565b5b5092915050565b7f4e487b71000000000000000000000000000000000000000000000000000000005f52601260045260245ffd5b5f610fef82610bb4565b9150610ffa83610bb4565b92508261100a57611009610fb8565b5b828204905092915050565b7f50726f6669742062656c6f77206d696e696d756d0000000000000000000000005f82015250565b5f611049601483610c74565b915061105482611015565b602082019050919050565b5f6020820190508181035f8301526110768161103d565b9050919050565b5f6060820190506110905f830186610c4c565b61109d6020830185610c4c565b6110aa6040830184610c4c565b949350505050565b7f4e6f204554482062616c616e63650000000000000000000000000000000000005f82015250565b5f6110e6600e83610c74565b91506110f1826110b2565b602082019050919050565b5f6020820190508181035f830152611113816110da565b9050919050565b7f4e487b71000000000000000000000000000000000000000000000000000000005f52604160045260245ffd5b5f61115182610bb4565b915061115c83610bb4565b925082820190508082111561117457611173610f17565b5b92915050565b5f819050919050565b5f819050919050565b5f6111a66111a161119c8461117a565b611183565b610bb4565b9050919050565b6111b68161118c565b82525050565b5f81519050919050565b5f82825260208201905092915050565b5f819050602082019050919050565b6111ee81610b01565b82525050565b5f6111ff83836111e5565b60208301905092915050565b5f602082019050919050565b5f611221826111bc565b61122b81856111c6565b9350611236836111d6565b805f5b8381101561126657815161124d88826111f4565b97506112588361120b565b925050600181019050611239565b5085935050505092915050565b5f60a0820190506112865f830188610c4c565b61129360208301876111ad565b81810360408301526112a58186611217565b90506112b46060830185610b67565b6112c16080830184610c4c565b9695505050505050565b5f5ffd5b5f601f19601f8301169050919050565b6112e8826112cf565b810181811067ffffffffffffffff821117156113075761130661111a565b5b80604052505050565b5f611319610ad1565b905061132582826112df565b919050565b5f67ffffffffffffffff8211156113445761134361111a565b5b602082029050602081019050919050565b5f6113676113628461132a565b611310565b9050808382526020820190506020840283018581111561138a57611389610b8f565b5b835b818110156113b3578061139f8882610cec565b84526020840193505060208101905061138c565b5050509392505050565b5f82601f8301126113d1576113d06112cb565b5b81516113e1848260208601611355565b91505092915050565b5f602082840312156113ff576113fe610ada565b5b5f82015167ffffffffffffffff81111561141c5761141b610ade565b5b611428848285016113bd565b9150509291505056fea26469706673582212201570ad4a04eb69f601327e4c75f80013cb741753874f9c6aaa3565c5c9e2054e64736f6c63430008210033","linkReferences":{}},"methodIdentifiers":{"executeArbitrage(address[3],address[3],uint256,uint256)":"bff18f75","owner()":"8da5cb5b","withdrawETH()":"e086e5ec","withdrawProfit(address)":"24e26241"},"id":20}