{"abi":[{"type":"constructor","inputs":[{"name":"_addressProvider","type":"address","internalType":"address"}],"stateMutability":"nonpayable"},{"type":"receive","stateMutability":"payable"},{"type":"function","name":"ADDRESSES_PROVIDER","inputs":[],"outputs":[{"name":"","type":"address","internalType":"contract IPoolAddressesProvider"}],"stateMutability":"view"},{"type":"function","name":"POOL","inputs":[],"outputs":[{"name":"","type":"address","internalType":"contract IPool"}],"stateMutability":"view"},{"type":"function","name":"executeFlashLoanArbitrage","inputs":[{"name":"asset","type":"address","internalType":"address"},{"name":"loanAmount","type":"uint256","internalType":"uint256"},{"name":"routers","type":"address[3]","internalType":"address[3]"},{"name":"tokens","type":"address[3]","internalType":"address[3]"},{"name":"minProfitBps","type":"uint256","internalType":"uint256"}],"outputs":[],"stateMutability":"nonpayable"},{"type":"function","name":"executeOperation","inputs":[{"name":"asset","type":"address","internalType":"address"},{"name":"amount","type":"uint256","internalType":"uint256"},{"name":"premium","type":"uint256","internalType":"uint256"},{"name":"initiator","type":"address","internalType":"address"},{"name":"params","type":"bytes","internalType":"bytes"}],"outputs":[{"name":"","type":"bool","internalType":"bool"}],"stateMutability":"nonpayable"},{"type":"function","name":"owner","inputs":[],"outputs":[{"name":"","type":"address","internalType":"address"}],"stateMutability":"view"},{"type":"function","name":"simulateArbitrage","inputs":[{"name":"routers","type":"address[3]","internalType":"address[3]"},{"name":"tokens","type":"address[3]","internalType":"address[3]"},{"name":"amountIn","type":"uint256","internalType":"uint256"},{"name":"premiumBps","type":"uint256","internalType":"uint256"}],"outputs":[{"name":"finalAmount","type":"uint256","internalType":"uint256"},{"name":"profit","type":"uint256","internalType":"uint256"},{"name":"premium","type":"uint256","internalType":"uint256"},{"name":"isProfitable","type":"bool","internalType":"bool"}],"stateMutability":"view"},{"type":"function","name":"withdrawETH","inputs":[],"outputs":[],"stateMutability":"nonpayable"},{"type":"function","name":"withdrawProfit","inputs":[{"name":"token","type":"address","internalType":"address"}],"outputs":[],"stateMutability":"nonpayable"},{"type":"event","name":"ArbitrageExecuted","inputs":[{"name":"token","type":"address","indexed":true,"internalType":"address"},{"name":"loanAmount","type":"uint256","indexed":false,"internalType":"uint256"},{"name":"profit","type":"uint256","indexed":false,"internalType":"uint256"},{"name":"premium","type":"uint256","indexed":false,"internalType":"uint256"}],"anonymous":false},{"type":"event","name":"ProfitWithdrawn","inputs":[{"name":"token","type":"address","indexed":true,"internalType":"address"},{"name":"amount","type":"uint256","indexed":false,"internalType":"uint256"}],"anonymous":false}],"bytecode":{"object":"0x60c060405234801561000f575f5ffd5b50604051612605380380612605833981810160405281019061003191906101aa565b335f5f6101000a81548173ffffffffffffffffffffffffffffffffffffffff021916908373ffffffffffffffffffffffffffffffffffffffff1602179055508073ffffffffffffffffffffffffffffffffffffffff1660808173ffffffffffffffffffffffffffffffffffffffff168152505060805173ffffffffffffffffffffffffffffffffffffffff1663026b1d5f6040518163ffffffff1660e01b8152600401602060405180830381865afa1580156100ef573d5f5f3e3d5ffd5b505050506040513d601f19601f8201168201806040525081019061011391906101aa565b73ffffffffffffffffffffffffffffffffffffffff1660a08173ffffffffffffffffffffffffffffffffffffffff1681525050506101d5565b5f5ffd5b5f73ffffffffffffffffffffffffffffffffffffffff82169050919050565b5f61017982610150565b9050919050565b6101898161016f565b8114610193575f5ffd5b50565b5f815190506101a481610180565b92915050565b5f602082840312156101bf576101be61014c565b5b5f6101cc84828501610196565b91505092915050565b60805160a0516123fa61020b5f395f818161020f0152818161040c01528181610d770152610f0701525f6101ea01526123fa5ff3fe60806040526004361061007e575f3560e01c80637535d2461161004d5780637535d246146101565780638da5cb5b146101805780639de0afdd146101aa578063e086e5ec146101d257610085565b80630542975c146100895780631b11d0ff146100b357806324e26241146100ef5780632ce60deb1461011757610085565b3661008557005b5f5ffd5b348015610094575f5ffd5b5061009d6101e8565b6040516100aa919061147e565b60405180910390f35b3480156100be575f5ffd5b506100d960048036038101906100d49190611577565b61020c565b6040516100e69190611627565b60405180910390f35b3480156100fa575f5ffd5b5061011560048036038101906101109190611640565b6104f1565b005b348015610122575f5ffd5b5061013d6004803603810190610138919061168c565b61072a565b60405161014d9493929190611700565b60405180910390f35b348015610161575f5ffd5b5061016a610d75565b6040516101779190611763565b60405180910390f35b34801561018b575f5ffd5b50610194610d99565b6040516101a1919061178b565b60405180910390f35b3480156101b5575f5ffd5b506101d060048036038101906101cb91906117a4565b610dbd565b005b3480156101dd575f5ffd5b506101e6610f9b565b005b7f000000000000000000000000000000000000000000000000000000000000000081565b5f7f000000000000000000000000000000000000000000000000000000000000000073ffffffffffffffffffffffffffffffffffffffff163373ffffffffffffffffffffffffffffffffffffffff161461029b576040517f08c379a000000000000000000000000000000000000000000000000000000000815260040161029290611877565b60405180910390fd5b3073ffffffffffffffffffffffffffffffffffffffff168473ffffffffffffffffffffffffffffffffffffffff1614610309576040517f08c379a0000000000000000000000000000000000000000000000000000000008152600401610300906118df565b60405180910390fd5b5f5f5f858581019061031b9190611a33565b9250925092505f61032d84848c6110d6565b90505f898b61033c9190611ab0565b9050808211610380576040517f08c379a000000000000000000000000000000000000000000000000000000000815260040161037790611b2d565b60405180910390fd5b5f818361038d9190611b4b565b90505f612710858e61039f9190611b7e565b6103a99190611bec565b9050808210156103ee576040517f08c379a00000000000000000000000000000000000000000000000000000000081526004016103e590611c66565b60405180910390fd5b8d73ffffffffffffffffffffffffffffffffffffffff1663095ea7b37f0000000000000000000000000000000000000000000000000000000000000000856040518363ffffffff1660e01b8152600401610449929190611c84565b6020604051808303815f875af1158015610465573d5f5f3e3d5ffd5b505050506040513d601f19601f820116820180604052508101906104899190611cd5565b508d73ffffffffffffffffffffffffffffffffffffffff167fac5e73d65c7df1a72a57e0d680767c7e764095957ee44ec036b761799b56afd28e848f6040516104d493929190611d00565b60405180910390a260019750505050505050509695505050505050565b5f5f9054906101000a900473ffffffffffffffffffffffffffffffffffffffff1673ffffffffffffffffffffffffffffffffffffffff163373ffffffffffffffffffffffffffffffffffffffff161461057f576040517f08c379a000000000000000000000000000000000000000000000000000000000815260040161057690611d7f565b60405180910390fd5b5f8173ffffffffffffffffffffffffffffffffffffffff166370a08231306040518263ffffffff1660e01b81526004016105b9919061178b565b602060405180830381865afa1580156105d4573d5f5f3e3d5ffd5b505050506040513d601f19601f820116820180604052508101906105f89190611db1565b90505f811161063c576040517f08c379a000000000000000000000000000000000000000000000000000000000815260040161063390611e26565b60405180910390fd5b8173ffffffffffffffffffffffffffffffffffffffff1663a9059cbb5f5f9054906101000a900473ffffffffffffffffffffffffffffffffffffffff16836040518363ffffffff1660e01b8152600401610697929190611c84565b6020604051808303815f875af11580156106b3573d5f5f3e3d5ffd5b505050506040513d601f19601f820116820180604052508101906106d79190611cd5565b508173ffffffffffffffffffffffffffffffffffffffff167f016e128b6bdadd9e9068abd0b18db2fc8b27ed3dbced50e4aa6cc0a6934251ab8260405161071e9190611e44565b60405180910390a25050565b5f5f5f5f5f600267ffffffffffffffff81111561074a5761074961190d565b5b6040519080825280602002602001820160405280156107785781602001602082028036833780820191505090505b509050875f6003811061078e5761078d611e5d565b5b6020020160208101906107a19190611640565b815f815181106107b4576107b3611e5d565b5b602002602001019073ffffffffffffffffffffffffffffffffffffffff16908173ffffffffffffffffffffffffffffffffffffffff16815250508760016003811061080257610801611e5d565b5b6020020160208101906108159190611640565b8160018151811061082957610828611e5d565b5b602002602001019073ffffffffffffffffffffffffffffffffffffffff16908173ffffffffffffffffffffffffffffffffffffffff16815250505f895f6003811061087757610876611e5d565b5b60200201602081019061088a9190611640565b73ffffffffffffffffffffffffffffffffffffffff1663d06ca61f89846040518363ffffffff1660e01b81526004016108c4929190611f41565b5f60405180830381865afa1580156108de573d5f5f3e3d5ffd5b505050506040513d5f823e3d601f19601f82011682018060405250810190610906919061202f565b90505f600267ffffffffffffffff8111156109245761092361190d565b5b6040519080825280602002602001820160405280156109525781602001602082028036833780820191505090505b5090508960016003811061096957610968611e5d565b5b60200201602081019061097c9190611640565b815f8151811061098f5761098e611e5d565b5b602002602001019073ffffffffffffffffffffffffffffffffffffffff16908173ffffffffffffffffffffffffffffffffffffffff1681525050896002600381106109dd576109dc611e5d565b5b6020020160208101906109f09190611640565b81600181518110610a0457610a03611e5d565b5b602002602001019073ffffffffffffffffffffffffffffffffffffffff16908173ffffffffffffffffffffffffffffffffffffffff16815250505f8b600160038110610a5357610a52611e5d565b5b602002016020810190610a669190611640565b73ffffffffffffffffffffffffffffffffffffffff1663d06ca61f84600181518110610a9557610a94611e5d565b5b6020026020010151846040518363ffffffff1660e01b8152600401610abb929190611f41565b5f60405180830381865afa158015610ad5573d5f5f3e3d5ffd5b505050506040513d5f823e3d601f19601f82011682018060405250810190610afd919061202f565b90505f600267ffffffffffffffff811115610b1b57610b1a61190d565b5b604051908082528060200260200182016040528015610b495781602001602082028036833780820191505090505b5090508b600260038110610b6057610b5f611e5d565b5b602002016020810190610b739190611640565b815f81518110610b8657610b85611e5d565b5b602002602001019073ffffffffffffffffffffffffffffffffffffffff16908173ffffffffffffffffffffffffffffffffffffffff16815250508b5f60038110610bd357610bd2611e5d565b5b602002016020810190610be69190611640565b81600181518110610bfa57610bf9611e5d565b5b602002602001019073ffffffffffffffffffffffffffffffffffffffff16908173ffffffffffffffffffffffffffffffffffffffff16815250505f8d600260038110610c4957610c48611e5d565b5b602002016020810190610c5c9190611640565b73ffffffffffffffffffffffffffffffffffffffff1663d06ca61f84600181518110610c8b57610c8a611e5d565b5b6020026020010151846040518363ffffffff1660e01b8152600401610cb1929190611f41565b5f60405180830381865afa158015610ccb573d5f5f3e3d5ffd5b505050506040513d5f823e3d601f19601f82011682018060405250810190610cf3919061202f565b905080600181518110610d0957610d08611e5d565b5b602002602001015199506127108b8d610d229190611b7e565b610d2c9190611bec565b97505f888d610d3b9190611ab0565b9050808b1115610d5c57808b610d519190611b4b565b995060019750610d63565b5f99505f97505b50505050505050945094509450949050565b7f000000000000000000000000000000000000000000000000000000000000000081565b5f5f9054906101000a900473ffffffffffffffffffffffffffffffffffffffff1681565b5f5f9054906101000a900473ffffffffffffffffffffffffffffffffffffffff1673ffffffffffffffffffffffffffffffffffffffff163373ffffffffffffffffffffffffffffffffffffffff1614610e4b576040517f08c379a0000000000000000000000000000000000000000000000000000000008152600401610e4290611d7f565b60405180910390fd5b8473ffffffffffffffffffffffffffffffffffffffff16825f60038110610e7557610e74611e5d565b5b602002016020810190610e889190611640565b73ffffffffffffffffffffffffffffffffffffffff1614610ede576040517f08c379a0000000000000000000000000000000000000000000000000000000008152600401610ed5906120e6565b60405180910390fd5b5f838383604051602001610ef4939291906121a1565b60405160208183030381529060405290507f000000000000000000000000000000000000000000000000000000000000000073ffffffffffffffffffffffffffffffffffffffff166342b0b77c308888855f6040518663ffffffff1660e01b8152600401610f6695949392919061227c565b5f604051808303815f87803b158015610f7d575f5ffd5b505af1158015610f8f573d5f5f3e3d5ffd5b50505050505050505050565b5f5f9054906101000a900473ffffffffffffffffffffffffffffffffffffffff1673ffffffffffffffffffffffffffffffffffffffff163373ffffffffffffffffffffffffffffffffffffffff1614611029576040517f08c379a000000000000000000000000000000000000000000000000000000000815260040161102090611d7f565b60405180910390fd5b5f4790505f811161106f576040517f08c379a00000000000000000000000000000000000000000000000000000000081526004016110669061231e565b60405180910390fd5b5f5f9054906101000a900473ffffffffffffffffffffffffffffffffffffffff1673ffffffffffffffffffffffffffffffffffffffff166108fc8290811502906040515f60405180830381858888f193505050501580156110d2573d5f5f3e3d5ffd5b5050565b5f5f61112a855f600381106110ee576110ed611e5d565b5b6020020151855f6003811061110657611105611e5d565b5b60200201518660016003811061111f5761111e611e5d565b5b6020020151866111e1565b90505f6111818660016003811061114457611143611e5d565b5b60200201518660016003811061115d5761115c611e5d565b5b60200201518760026003811061117657611175611e5d565b5b6020020151856111e1565b90506111d68660026003811061119a57611199611e5d565b5b6020020151866002600381106111b3576111b2611e5d565b5b6020020151875f600381106111cb576111ca611e5d565b5b6020020151846111e1565b925050509392505050565b5f8373ffffffffffffffffffffffffffffffffffffffff1663095ea7b386846040518363ffffffff1660e01b815260040161121d929190611c84565b6020604051808303815f875af1158015611239573d5f5f3e3d5ffd5b505050506040513d601f19601f8201168201806040525081019061125d9190611cd5565b505f600267ffffffffffffffff81111561127a5761127961190d565b5b6040519080825280602002602001820160405280156112a85781602001602082028036833780820191505090505b50905084815f815181106112bf576112be611e5d565b5b602002602001019073ffffffffffffffffffffffffffffffffffffffff16908173ffffffffffffffffffffffffffffffffffffffff1681525050838160018151811061130e5761130d611e5d565b5b602002602001019073ffffffffffffffffffffffffffffffffffffffff16908173ffffffffffffffffffffffffffffffffffffffff16815250505f8673ffffffffffffffffffffffffffffffffffffffff166338ed1739855f853061012c426113779190611ab0565b6040518663ffffffff1660e01b815260040161139795949392919061236c565b5f604051808303815f875af11580156113b2573d5f5f3e3d5ffd5b505050506040513d5f823e3d601f19601f820116820180604052508101906113da919061202f565b9050806001815181106113f0576113ef611e5d565b5b602002602001015192505050949350505050565b5f73ffffffffffffffffffffffffffffffffffffffff82169050919050565b5f819050919050565b5f61144661144161143c84611404565b611423565b611404565b9050919050565b5f6114578261142c565b9050919050565b5f6114688261144d565b9050919050565b6114788161145e565b82525050565b5f6020820190506114915f83018461146f565b92915050565b5f604051905090565b5f5ffd5b5f5ffd5b5f6114b282611404565b9050919050565b6114c2816114a8565b81146114cc575f5ffd5b50565b5f813590506114dd816114b9565b92915050565b5f819050919050565b6114f5816114e3565b81146114ff575f5ffd5b50565b5f81359050611510816114ec565b92915050565b5f5ffd5b5f5ffd5b5f5ffd5b5f5f83601f84011261153757611536611516565b5b8235905067ffffffffffffffff8111156115545761155361151a565b5b6020830191508360018202830111156115705761156f61151e565b5b9250929050565b5f5f5f5f5f5f60a08789031215611591576115906114a0565b5b5f61159e89828a016114cf565b96505060206115af89828a01611502565b95505060406115c089828a01611502565b94505060606115d189828a016114cf565b935050608087013567ffffffffffffffff8111156115f2576115f16114a4565b5b6115fe89828a01611522565b92509250509295509295509295565b5f8115159050919050565b6116218161160d565b82525050565b5f60208201905061163a5f830184611618565b92915050565b5f60208284031215611655576116546114a0565b5b5f611662848285016114cf565b91505092915050565b5f819050826020600302820111156116865761168561151e565b5b92915050565b5f5f5f5f61010085870312156116a5576116a46114a0565b5b5f6116b28782880161166b565b94505060606116c38782880161166b565b93505060c06116d487828801611502565b92505060e06116e587828801611502565b91505092959194509250565b6116fa816114e3565b82525050565b5f6080820190506117135f8301876116f1565b61172060208301866116f1565b61172d60408301856116f1565b61173a6060830184611618565b95945050505050565b5f61174d8261144d565b9050919050565b61175d81611743565b82525050565b5f6020820190506117765f830184611754565b92915050565b611785816114a8565b82525050565b5f60208201905061179e5f83018461177c565b92915050565b5f5f5f5f5f61012086880312156117be576117bd6114a0565b5b5f6117cb888289016114cf565b95505060206117dc88828901611502565b94505060406117ed8882890161166b565b93505060a06117fe8882890161166b565b92505061010061181088828901611502565b9150509295509295909350565b5f82825260208201905092915050565b7f43616c6c6572206d75737420626520506f6f6c000000000000000000000000005f82015250565b5f61186160138361181d565b915061186c8261182d565b602082019050919050565b5f6020820190508181035f83015261188e81611855565b9050919050565b7f496e69746961746f72206d757374206265207468697320636f6e7472616374005f82015250565b5f6118c9601f8361181d565b91506118d482611895565b602082019050919050565b5f6020820190508181035f8301526118f6816118bd565b9050919050565b5f601f19601f8301169050919050565b7f4e487b71000000000000000000000000000000000000000000000000000000005f52604160045260245ffd5b611943826118fd565b810181811067ffffffffffffffff821117156119625761196161190d565b5b80604052505050565b5f611974611497565b9050611980828261193a565b919050565b5f67ffffffffffffffff82111561199f5761199e61190d565b5b602082029050919050565b5f6119bc6119b784611985565b61196b565b905080602084028301858111156119d6576119d561151e565b5b835b818110156119ff57806119eb88826114cf565b8452602084019350506020810190506119d8565b5050509392505050565b5f82601f830112611a1d57611a1c611516565b5b6003611a2a8482856119aa565b91505092915050565b5f5f5f60e08486031215611a4a57611a496114a0565b5b5f611a5786828701611a09565b9350506060611a6886828701611a09565b92505060c0611a7986828701611502565b9150509250925092565b7f4e487b71000000000000000000000000000000000000000000000000000000005f52601160045260245ffd5b5f611aba826114e3565b9150611ac5836114e3565b9250828201905080821115611add57611adc611a83565b5b92915050565b7f4e6f2070726f666974206166746572206c6f616e2072657061796d656e7400005f82015250565b5f611b17601e8361181d565b9150611b2282611ae3565b602082019050919050565b5f6020820190508181035f830152611b4481611b0b565b9050919050565b5f611b55826114e3565b9150611b60836114e3565b9250828203905081811115611b7857611b77611a83565b5b92915050565b5f611b88826114e3565b9150611b93836114e3565b9250828202611ba1816114e3565b91508282048414831517611bb857611bb7611a83565b5b5092915050565b7f4e487b71000000000000000000000000000000000000000000000000000000005f52601260045260245ffd5b5f611bf6826114e3565b9150611c01836114e3565b925082611c1157611c10611bbf565b5b828204905092915050565b7f50726f6669742062656c6f77206d696e696d756d0000000000000000000000005f82015250565b5f611c5060148361181d565b9150611c5b82611c1c565b602082019050919050565b5f6020820190508181035f830152611c7d81611c44565b9050919050565b5f604082019050611c975f83018561177c565b611ca460208301846116f1565b9392505050565b611cb48161160d565b8114611cbe575f5ffd5b50565b5f81519050611ccf81611cab565b92915050565b5f60208284031215611cea57611ce96114a0565b5b5f611cf784828501611cc1565b91505092915050565b5f606082019050611d135f8301866116f1565b611d2060208301856116f1565b611d2d60408301846116f1565b949350505050565b7f4e6f74206f776e657200000000000000000000000000000000000000000000005f82015250565b5f611d6960098361181d565b9150611d7482611d35565b602082019050919050565b5f6020820190508181035f830152611d9681611d5d565b9050919050565b5f81519050611dab816114ec565b92915050565b5f60208284031215611dc657611dc56114a0565b5b5f611dd384828501611d9d565b91505092915050565b7f4e6f2062616c616e6365000000000000000000000000000000000000000000005f82015250565b5f611e10600a8361181d565b9150611e1b82611ddc565b602082019050919050565b5f6020820190508181035f830152611e3d81611e04565b9050919050565b5f602082019050611e575f8301846116f1565b92915050565b7f4e487b71000000000000000000000000000000000000000000000000000000005f52603260045260245ffd5b5f81519050919050565b5f82825260208201905092915050565b5f819050602082019050919050565b611ebc816114a8565b82525050565b5f611ecd8383611eb3565b60208301905092915050565b5f602082019050919050565b5f611eef82611e8a565b611ef98185611e94565b9350611f0483611ea4565b805f5b83811015611f34578151611f1b8882611ec2565b9750611f2683611ed9565b925050600181019050611f07565b5085935050505092915050565b5f604082019050611f545f8301856116f1565b8181036020830152611f668184611ee5565b90509392505050565b5f67ffffffffffffffff821115611f8957611f8861190d565b5b602082029050602081019050919050565b5f611fac611fa784611f6f565b61196b565b90508083825260208201905060208402830185811115611fcf57611fce61151e565b5b835b81811015611ff85780611fe48882611d9d565b845260208401935050602081019050611fd1565b5050509392505050565b5f82601f83011261201657612015611516565b5b8151612026848260208601611f9a565b91505092915050565b5f60208284031215612044576120436114a0565b5b5f82015167ffffffffffffffff811115612061576120606114a4565b5b61206d84828501612002565b91505092915050565b7f466972737420746f6b656e206d757374206d6174636820626f72726f776564205f8201527f6173736574000000000000000000000000000000000000000000000000000000602082015250565b5f6120d060258361181d565b91506120db82612076565b604082019050919050565b5f6020820190508181035f8301526120fd816120c4565b9050919050565b5f60039050919050565b5f81905092915050565b5f819050919050565b5f61212f60208401846114cf565b905092915050565b5f602082019050919050565b61214c81612104565b612156818461210e565b925061216182612118565b805f5b83811015612199576121768284612121565b6121808782611ec2565b965061218b83612137565b925050600181019050612164565b505050505050565b5f60e0820190506121b45f830186612143565b6121c16060830185612143565b6121ce60c08301846116f1565b949350505050565b5f81519050919050565b5f82825260208201905092915050565b8281835e5f83830152505050565b5f612208826121d6565b61221281856121e0565b93506122228185602086016121f0565b61222b816118fd565b840191505092915050565b5f819050919050565b5f61ffff82169050919050565b5f61226661226161225c84612236565b611423565b61223f565b9050919050565b6122768161224c565b82525050565b5f60a08201905061228f5f83018861177c565b61229c602083018761177c565b6122a960408301866116f1565b81810360608301526122bb81856121fe565b90506122ca608083018461226d565b9695505050505050565b7f4e6f204554482062616c616e63650000000000000000000000000000000000005f82015250565b5f612308600e8361181d565b9150612313826122d4565b602082019050919050565b5f6020820190508181035f830152612335816122fc565b9050919050565b5f61235661235161234c84612236565b611423565b6114e3565b9050919050565b6123668161233c565b82525050565b5f60a08201905061237f5f8301886116f1565b61238c602083018761235d565b818103604083015261239e8186611ee5565b90506123ad606083018561177c565b6123ba60808301846116f1565b969550505050505056fea264697066735822122003dbaf0d67587413b70d41e3345010f974d9ab5be818290445402611e00fac6464736f6c63430008210033","linkReferences":{}},"methodIdentifiers":{"ADDRESSES_PROVIDER()":"0542975c","POOL()":"7535d246","executeFlashLoanArbitrage(address,uint256,address[3],address[3],uint256)":"9de0afdd","executeOperation(address,uint256,uint256,address,bytes)":"1b11d0ff","owner()":"8da5cb5b","simulateArbitrage(address[3],address[3],uint256,uint256)":"2ce60deb","withdrawETH()":"e086e5ec","withdrawProfit(address)":"24e26241"},"id":19}